:100000000C9462000C948A000C948A000C948A0070
:100010000C948A000C948A000C948A000C948A0038
:100020000C948A000C948A000C948A000C948A0028
:100030000C948A000C948A000C948A000C948A0018
:100040000C9464020C948A000C9437020C941102F4
:100050000C948A000C948A000C948A000C948A00F8
:100060000C948A000C948A00000000080002010031
:100070000003040700000000000000000000000072
:1000800023002600290000000000250028002B0086
:1000900000000000240027002A00040404040404D3
:1000A0000404020202020202030303030303010227
:1000B00004081020408001020408102001020408F6
:1000C0001020F10211241FBECFEFD8E0DEBFCDBF5C
:1000D00011E0A0E0B1E0EAE0FFE002C005900D927F
:1000E000AE33B107D9F721E0AEE3B1E001C01D9214
:1000F000AC3EB207E1F710E0C2E6D0E004C02197C1
:10010000FE010E947D07C136D107C9F70E94920304
:100110000C948E050C940000FC01538D448D252F0A
:1001200030E0842F90E0821B930B541710F0CF9691
:10013000089501970895FC01918D828D981761F0C3
:10014000A28DAE0FBF2FB11D5D968C91928D9F5FDA
:100150009F73928F90E008958FEF9FEF0895FC01B9
:10016000918D828D981731F0828DE80FF11D858D6C
:1001700090E008958FEF9FEF0895FC01918D228DFF
:10018000892F90E0805C9F4F821B91098F73992784
:100190000895FC01A48DA80FB92FB11DA35ABF4F1C
:1001A0002C91848D90E001968F739927848FA68976
:1001B000B7892C93A089B1898C9180648C93938D9D
:1001C000848D981306C00288F389E02D80818F7D8D
:1001D00080830895EF92FF920F931F93CF93DF9345
:1001E000EC01F62E81E0888F9B8D8C8D981316C0C4
:1001F000E889F989808185FF11C0EE89FF896083D4
:10020000E889F98980818064808381E090E0DF91D2
:10021000CF911F910F91FF90EF9008950B8D10E0FB
:100220000F5F1F4F0F731127E02E8C8D8E110CC0A6
:100230000FB607FCFACFE889F989808185FFF5CFF1
:10024000CE010E94C900F1CFEB8DEC0FFD2FF11D07
:10025000E35AFF4FF0820B8FEA89FB89808180622D
:10026000D3CFCF93DF93EC01888D8823B9F0AA898F
:10027000BB89E889F9898C9185FD03C0808186FD61
:100280000DC00FB607FCF7CF8C9185FFF2CF8081B0
:1002900085FFEDCFCE010E94C900E9CFDF91CF915C
:1002A000089587E491E00E94BD0021E0892B09F4C4
:1002B00020E0822F089580E090E0892B29F00E94B1
:1002C000510181110C9400000895CF92DF92EF92BA
:1002D000FF920F931F93CF93DF937C016A0110E08D
:1002E00000E00C151D0581F0EB01D701ED91FC91AB
:1002F0000190F081E02D6991C7010995892B21F0CA
:100300000F5F1F4FBE01EDCFC801DF91CF911F914D
:100310000F91FF90EF90DF90CF90089590E0FC0157
:10032000E859FF4F2491FC01E255FF4F3491FC0145
:10033000E656FF4FE491EE23C9F0222339F0233033
:1003400001F1A8F4213019F1223029F1F0E0EE0F8B
:10035000FF1FEA57FF4FA591B4918FB7F894EC9126
:10036000611126C030953E233C938FBF08952730FE
:10037000A9F02830C9F0243049F7809180008F7DA2
:1003800003C0809180008F7780938000DFCF84B599
:100390008F7784BDDBCF84B58F7DFBCF8091B0009C
:1003A0008F778093B000D2CF8091B0008F7DF9CF4E
:1003B0003E2BDACF3FB7F8948091430190914401EE
:1003C000A0914501B091460126B5A89B05C02F3FDD
:1003D00019F00196A11DB11D3FBFBA2FA92F982F6B
:1003E0008827BC01CD01620F711D811D911D42E066
:1003F000660F771F881F991F4A95D1F708950097B8
:1004000069F0FC0101900020E9F73197AF01481B2A
:10041000590BBC0187E491E00C94650190E080E009
:1004200008951F920F920FB60F9211242F933F93AE
:100430004F935F936F937F938F939F93AF93BF93EC
:10044000EF93FF9387E491E00E94C900FF91EF9141
:10045000BF91AF919F918F917F916F915F914F91DC
:100460003F912F910F900FBE0F901F9018952F93D3
:100470002FB72F938F939F93EF93FF93E0915701A3
:10048000F09158018081E0915D01F0915E0182FD63
:1004900019C09081809160018F5F8F7320916101FD
:1004A000821741F0E0916001F0E0E95BFE4F958F2B
:1004B00080936001FF91EF919F918F912F912FBFBA
:1004C0002F9118958081F6CF1F921FB61F9211248D
:1004D0002F933F938F939F93AF93BF9380913F014F
:1004E00090914001A0914101B091420130913E01B3
:1004F00023E0230F2D3750F50196A11DB11D209348
:100500003E0180933F0190934001A0934101B0933D
:1005100042018091430190914401A0914501B09125
:1005200046010196A11DB11D8093430190934401A2
:10053000A0934501B0934601BF91AF919F918F91D8
:100540003F912F911F901FBE1F90189526E8230FF3
:100550000296A11DB11DD3CFCF92DF92EF92FF92F1
:100560000F931F93E82FF92F05C00150110921099E
:10057000310961F1908196239417B9F305C00150B8
:1005800011092109310911F1908196239413F7CFB4
:10059000C12CD12CE12CF12C0AC08FEFC81AD80A3B
:1005A000E80AF80A0C151D052E053F0579F0808133
:1005B0008623841791F36C2D7D2D8E2D9F2D1F91F9
:1005C0000F91FF90EF90DF90CF90089560E070E082
:1005D00080E090E01F910F91FF90EF90DF90CF901F
:1005E0000895CF93DF9310924A011092490188EE4B
:1005F00093E0A0E0B0E080934B0190934C01A09376
:100600004D01B0934E0184E091E0909348018093B6
:10061000470185EC90E0909354018093530184EC62
:1006200090E0909356018093550180EC90E0909378
:1006300058018093570181EC90E090935A01809388
:10064000590182EC90E090935C0180935B0186EC11
:1006500090E090935E0180935D0110926001109292
:100660006101109262011092630187E090E0909323
:10067000E5018093E40186E090E09093E7018093A8
:10068000E6011092E8011092E9011092EA0110923D
:10069000EB01E5EBF0E02491E1EAF0E084918823BE
:1006A00099F090E0880F991FFC01E057FF4FA5914A
:1006B000B491FC01EA57FF4F859194918FB7F8945C
:1006C000EC91E22BEC938FBF8091E6019091E701D2
:1006D0009927FC01E255FF4F249186569F4FFC015C
:1006E00084918823C1F090E0880F991FFC01E057A6
:1006F000FF4FC591D491FC01EA57FF4FA591B491EA
:100700009FB7F8948881E22FE0958E2388838C919F
:10071000E823EC939FBF60E08091E401DF91CF91EB
:100720000C948E01CDB7DEB7A5970FB6F894DEBF57
:100730000FBECDBF789484B5826084BD84B58160DE
:1007400084BD85B5826085BD85B5816085BD80919C
:100750006E00816080936E00109281008091810014
:10076000826080938100809181008160809381000C
:10077000809180008160809380008091B1008460CE
:100780008093B1008091B00081608093B00080912F
:100790007A00846080937A0080917A0082608093EE
:1007A0007A0080917A00816080937A0080917A004B
:1007B000806880937A001092C100E0915701F09117
:1007C000580182E08083E0915301F091540110823E
:1007D000E0915501F09156018FEC808310925F01FA
:1007E000E0915B01F0915C0186E08083E09159012A
:1007F000F0915A01808180618083E0915901F091EC
:100800005A01808188608083E0915901F0915A01FA
:10081000808180688083E0915901F0915A01808144
:100820008F7D80832AE0822E912CA12CB12C61E057
:100830008091E4010E948E0183E290E00197F1F73C
:1008400060E08091E4010E948E018091E601909128
:10085000E7019927FC01E255FF4F6491FC01E65640
:10086000FF4FE491F0E0EE0FFF1FE458FF4F85913A
:1008700094910DE81DE220E030E0462F0E94AC028A
:10088000611571058105910529F06F5F7F4F8F4FCD
:100890009F4F9F700E94320628E23EE74CE85CE3DF
:1008A0000E94E9066093E8017093E9018093EA01F0
:1008B0009093EB0182E191E00E94FF01C090E8017A
:1008C000D090E901E090EA01F090EB0120E030E007
:1008D00040E050E4C701B6010E94FE051816CCF1B5
:1008E0008EE191E00E94FF018BE291E00E94FF0106
:1008F0000E94DA016B017C0184E6482E512C612CA8
:10090000712C0E94DA016C197D098E099F09683EDD
:10091000734081059105A8F321E0421A510861084E
:10092000710888EEC80E83E0D81EE11CF11C41144A
:1009300051046104710429F780E090E0892B09F4E7
:1009400076CF0E945101882309F471CF0E940000E4
:100950006ECFA7019601C701B6010E9456078823F2
:1009600039F08EE291E00E94FF018AE391E0BACF74
:1009700026013701E89477F82FEF3FEF4FE75FE765
:10098000C301B2010E94560781110DC02FEF3FEF46
:100990004FE75FE7C301B2010E94FE0518161CF481
:1009A00082E391E0E0CF2FEF3FEF4FE75FE4C70135
:1009B000B6010E94E40618161CF486E391E0D3CF3A
:1009C0002FEF3FEF4FE75FECC701B6010E94FE0536
:1009D00087FDF3CF20E030E0A901C701B6010E94F6
:1009E000FE0587FF09C06DE287E491E00E94EA00FE
:1009F000F7FAF094F7F8F0942AE037ED43EA5BE376
:100A0000C701B6010E9492052B013C010E9403061A
:100A10006B017C010E9432069B01AC01C301B20153
:100A20000E9491052B013C0119A28E010F5D1F4F01
:100A30001801C701B601A50194010E945B07605D22
:100A4000F80162938F01FAE0CF16D104E104F104BA
:100A500008F05BC0C8010E94FF016EE287E491E0EC
:100A60000E94EA0020E030E040E251E4C301B2011C
:100A70000E94E9062B013C010E9403066B01F12C48
:100A8000E12C19A281016AA3DBA2ECA2FDA2C7019D
:100A9000B601A50194010E945B07605DF8016293B5
:100AA0008F01FAE0CF16D104E104F10488F5C80102
:100AB0000E94FF016AA17BA18CA19DA10E94320628
:100AC0009B01AC01C301B2010E94910520E030E01E
:100AD00040E251E40E94E9060E9403066B01F12CFA
:100AE000E12C19A28101C701B601A50194010E9460
:100AF0005B07605DF80162938F01FAE0CF16D104C5
:100B0000E104F10440F4C8012ECF69017A0191CFCC
:100B100069017A01BCCF69017A01E5CFF8940C94A0
:100B200083075058BB27AA270E94A9050C94AA0640
:100B30000E949C0638F00E94A30620F039F49F3FE3
:100B400019F426F40C9499060EF4E095E7FB0C9446
:100B50009306E92F0E94BB0658F3BA176207730782
:100B60008407950720F079F4A6F50C94DD060EF4C1
:100B7000E0950B2EBA2FA02D0B01B90190010C01AD
:100B8000CA01A0011124FF27591B99F0593F50F4C5
:100B9000503E68F11A16F040A22F232F342F44271D
:100BA000585FF3CF469537952795A795F040539515
:100BB000C9F77EF41F16BA0B620B730B840BBAF0E5
:100BC0009150A1F0FF0FBB1F661F771F881FC2F750
:100BD0000EC0BA0F621F731F841F48F48795779564
:100BE0006795B795F7959E3F08F0B0CF9395880F1E
:100BF00008F09927EE0F9795879508950E946F0644
:100C000008F481E008950E94C30688F09F5798F089
:100C1000B92F9927B751B0F0E1F0660F771F881F01
:100C2000991F1AF0BA95C9F714C0B13091F00E941B
:100C3000DD06B1E008950C94DD06672F782F882734
:100C4000B85F39F0B93FCCF3869577956795B39542
:100C5000D9F73EF490958095709561957F4F8F4FB1
:100C60009F4F0895E89409C097FB3EF490958095B6
:100C7000709561957F4F8F4F9F4F9923A9F0F92F62
:100C800096E9BB279395F695879577956795B795E0
:100C9000F111F8CFFAF4BB0F11F460FF1BC06F5FC6
:100CA0007F4F8F4F9F4F16C0882311F096E911C0D8
:100CB000772321F09EE8872F762F05C0662371F0F9
:100CC00096E8862F70E060E02AF09A95660F771F0D
:100CD000881FDAF7880F9695879597F90895990FE9
:100CE0000008550FAA0BE0E8FEEF16161706E807F6
:100CF000F907C0F012161306E407F50798F0621B17
:100D0000730B840B950B39F40A2661F0232B242BEB
:100D1000252B21F408950A2609F4A140A6958FEF0A
:100D2000811D811D089597F99F6780E870E060E05C
:100D300008959FEF80EC089500240A941616170674
:100D400018060906089500240A94121613061406BC
:100D500005060895092E0394000C11F4882352F01F
:100D6000BB0F40F4BF2B11F460FF04C06F5F7F4FD7
:100D70008F4F9F4F089557FD9058440F551F59F0BE
:100D80005F3F71F04795880F97FB991F61F09F3F78
:100D900079F087950895121613061406551FF2CFA1
:100DA0004695F1DF08C0161617061806991FF1CFF1
:100DB00086957105610508940895E894BB27662718
:100DC0007727CB0197F908950E946F0608F48FEFFB
:100DD00008950E94FC060C94AA060E949C0638F016
:100DE0000E94A30620F0952311F00C9493060C9416
:100DF000990611240C94DE060E94BB0670F3959FA1
:100E0000C1F3950F50E0551F629FF001729FBB2701
:100E1000F00DB11D639FAA27F00DB11DAA1F649F9D
:100E20006627B00DA11D661F829F2227B00DA11D50
:100E3000621F739FB00DA11D621F839FA00D611DD6
:100E4000221F749F3327A00D611D231F849F600DF7
:100E5000211D822F762F6A2F11249F5750409AF020
:100E6000F1F088234AF0EE0FFF1FBB1F661F771FAC
:100E7000881F91505040A9F79E3F510580F00C9477
:100E800093060C94DE065F3FE4F3983ED4F3869518
:100E900077956795B795F795E7959F5FC1F7FE2B17
:100EA000880F911D9695879597F908950E946F0672
:100EB000880B990B0895A1E21A2EAA1BBB1BFD01FA
:100EC0000DC0AA1FBB1FEE1FFF1FA217B307E40729
:100ED000F50720F0A21BB30BE40BF50B661F771F81
:100EE000881F991F1A9469F7609570958095909561
:100EF0009B01AC01BD01CF010895EE0FFF1F0590CE
:0A0F0000F491E02D0994F894FFCF5E
:100F0A0000000000EA0065018C003101BD009B0071
:100F1A00AF0044697374616E6365203D20004F75AC
:100F2A0074206F662072616E6765000D0A006E613B
:0E0F3A006E00696E66006F76660020636D00C3
:00000001FF
